:020000040800F2
:10000000C0060020CD0100083D060008E9040008F4
:10001000F10500087D0200082F0C00080000000018
:10002000000000000000000000000000BD07000804
:100030008102000800000000C506000855090008FC
:10004000E7010008E7010008E7010008E7010008F0
:10005000E7010008E7010008E7010008E7010008E0
:10006000E7010008E701000885020008E701000831
:10007000E7010008E7010008E7010008E7010008C0
:10008000E7010008E7010008E7010008E7010008B0
:10009000E7010008E7010008E7010008E7010008A0
:1000A000E7010008E7010008E7010008E701000890
:1000B000E7010008E7010008E7010008E701000880
:1000C000E7010008E7010008E7010008E701000870
:1000D000E7010008B9090008E7010008E701000886
:1000E000E7010008E7010008E7010008E701000850
:1000F000E7010008E7010008E7010008E701000840
:10010000E7010008E7010008E7010008E70100082F
:10011000E7010008E7010008E7010008E70100081F
:10012000E7010008E7010008E7010008E70100080F
:1001300000F002F800F03AF80AA090E8000C8244BF
:100140008344AAF10107DA4501D100F02FF8AFF29C
:10015000090EBAE80F0013F0010F18BFFB1A43F0A5
:1001600001031847540C0000740C0000103A24BF1F
:1001700078C878C1FAD8520724BF30C830C144BF0C
:1001800004680C607047000000230024002500264E
:10019000103A28BF78C1FBD8520728BF30C148BFEA
:1001A0000B6070471FB51FBD10B510BD00F033F8D0
:1001B0001146FFF7F7FF00F087FD00F051F803B498
:1001C000FFF7F2FF03BC00F034FD00000948804750
:1001D00009480047FEE7FEE7FEE7FEE7FEE7FEE729
:1001E000FEE7FEE7FEE7FEE704480549054A064B41
:1001F000704700005909000831010008C0000020C4
:10020000C0060020C0020020C002002070477047D6
:10021000704770477047754600F02CF8AE460500F1
:100220006946534620F00700854618B020B5FFF711
:10023000DBFFBDE820404FF000064FF000074FF015
:1002400000084FF0000B21F00701AC46ACE8C009F4
:10025000ACE8C009ACE8C009ACE8C0098D467047FD
:1002600010B50446AFF300802046BDE81040FFF70C
:10027000A6BF0000004870475C00002000BFFEE7FA
:100280007047000010B500F031F9114800780128DE
:1002900011D100F05DF901200E49087007E000F06F
:1002A00025F94FF4FA7000F0E9FC00F089FA0848EB
:1002B00000780128F3D00648007828B9002000F023
:1002C00047F9002003490870102000F005F810BD20
:1002D000180000200100002001490860704700005C
:1002E00014040140002123498279002A3AD00A46A9
:1002F000126803689A430B461A600A1D1268036865
:100300009A430B1D1A60027911440A6803681A4364
:100310000A60184A0832126803689A43154B08337A
:100320001A601A1D126803689A43124B0C331A6044
:100330004279102A0ED11A1F126803681A430D4B16
:1003400008331A601A1D126803681A43094B0C33EC
:100350001A600DE00749427911440A6803681A439C
:100360000A6005E0027911440A6803689A430A604A
:10037000704700000004014030B500228B071C0FBD
:100380000F2303FA04F20B4B8C1053F824309343E1
:10039000084C8D1044F8253023468C1053F8243037
:1003A0008C07240F00FA04F42343024C8D1044F808
:1003B000253030BD080001402DE9F04102460025FE
:1003C0000026002000230024002791F803C00CF031
:1003D0000F0591F803C00CF0100CBCF1000F03D016
:1003E00091F802C04CEA050591F800C0BCF1000F7D
:1003F00031D0146800202BE04FF0010C0CFA00F310
:10040000B1F800C00CEA03069E4220D183004FF0F1
:100410000F0C0CFA03F7BC4305FA03FC4CEA040486
:1004200091F803C0BCF1280F06D14FF0010C0CFA73
:1004300000FCC2F814C00AE091F803C0BCF1480FF8
:1004400005D14FF0010C0CFA00FCC2F810C0401CA2
:100450000828D1D31460B1F800C0BCF1FF0F34DD1F
:10046000546800202EE000F1080C4FF0010808FA53
:100470000CF3B1F800C00CEA03069E4221D18300C0
:100480004FF00F0C0CFA03F7BC4305FA03FC4CEADF
:10049000040491F803C0BCF1280F05D100F1080C49
:1004A00008FA0CF8C2F8148091F803C0BCF1480FA8
:1004B00007D100F1080C4FF0010808FA0CF8C2F857
:1004C0001080401C0828CED35460BDE8F08102465D
:1004D000002093680B400BB1012000E00020704722
:1004E000416170470161704700BFFEE710B5002011
:1004F0000C49087010210C48FFF7E9FF28B90A20C1
:1005000000F0BCFB01200749087010210648FFF7E6
:10051000DEFF012805D10A2000F0B0FB00200149D0
:10052000087010BD180000200018014008B5012116
:10053000402000F0C9F81020ADF8000048208DF8E8
:10054000030069460148FFF737FF08BD0018014066
:1005500010B504461CB920210448FFF7C3FF012C45
:1005600003D120210148FFF7BBFF10BD000C014063
:1005700010B504461CB920210448FFF7B3FF012C35
:1005800003D120210148FFF7ABFF10BD0018014047
:1005900008B50121082000F097F82020ADF80000F0
:1005A00010208DF8030003208DF8020069460E48E4
:1005B000FFF702FF0121402000F086F82020ADF86F
:1005C000000010208DF8030003208DF8020069461A
:1005D0000648FFF7F1FE20210348FFF783FF2021A3
:1005E0000248FFF77FFF08BD000C014000180140E2
:1005F00000BFFEE70EB50121084600F065F80421B2
:100600000846FFF7B9FE1020019000208DF8080081
:1006100010208DF8090001A8FFF764FE0A208DF86C
:10062000000002208DF8010000208DF8020001205A
:100630008DF80300684600F003F80EBD7047000017
:1006400070B5002100230F22C47804B3154C246830
:1006500004F4E064C4F5E064210AC1F10403CA4073
:10066000447804FA03F184781440214309010E4CC4
:100670000678A155047804F01F050124AC400578E4
:100680006D11AD0005F1E025C5F8004109E00478E1
:1006900004F01F050124AC40044D0678761145F89E
:1006A000264070BD0CED00E000E400E080E100E0D9
:1006B00002490143024A1160704700000000FA0538
:1006C0000CED00E07047000029B1064A9269024330
:1006D000044B9A6104E0034A92698243014B9A6198
:1006E000704700000010024030B5002100220024B5
:1006F00000232D4D6D6805F00C0121B1042905D0B2
:10070000082923D105E0294D056022E0274D056029
:100710001FE0254D6D6805F47012234D6D6805F4DA
:100720008034022505EB92421CB9214D55430560EA
:100730000BE01D4D6D6805F400351DB11C4D554392
:10074000056002E0194D5543056002E0174D056054
:1007500000BF00BF144D6D6805F0F0010909154D8B
:100760006B5C0568DD4045600F4D6D6805F4E06128
:10077000090A104D6B5C4568DD4085600A4D6D6867
:1007800005F46051C90A0B4D6B5C4568DD40C560DE
:10079000054D6D6805F44041890B074D6B5CC568DC
:1007A000B5FBF3F5056130BD0010024000127A0080
:1007B00000093D004800002058000020704700005C
:1007C00010B5AA201B490870BB204870CC20887047
:1007D000DD20C870012008711748007810B900208A
:1007E000487105E014480078012801D11149487189
:1007F0001248007818B900200E49887105E00F48AA
:100800000078012801D10B49887100200C4908703B
:100810000AE008490A4A1278885C00F0BDFA0848E4
:100820000078401C06490870054800780828F0DB6D
:1008300010BD000034000020000000200100002056
:100840003C00002010B500F001F810BD0CB50020F0
:10085000019000903348006840F4803031490860CE
:1008600000BF3048006800F4003000900198401C40
:100870000190009818B90198B0F5A06FF1D12948FE
:10088000006800F4003010B10120009001E0002069
:1008900000900098012843D12348006840F01000E0
:1008A000214908600846006820F0030008600846F7
:1008B000006840F0020008601A4840681949486022
:1008C0000846406848600846406840F480604860D8
:1008D0000846406820F47C1048600846406840F4B0
:1008E000E81048600846006840F08070086000BF6B
:1008F0000C48006800F000700028F9D009484068F2
:1009000020F00300074948600846406840F00200B4
:10091000486000BF0348406800F00C000828F9D187
:100920000CBD00000010024000200240042808D145
:100930004FF0E021096941F004014FF0E02211611C
:1009400007E04FF0E021096921F004014FF0E022B7
:10095000116170477047000010B51348006840F0FF
:1009600001001149086008464068104908400E49D6
:100970004860084600680E4908400B490860084670
:10098000006820F4802008600846406820F4FE00DB
:1009900048604FF41F008860FFF754FF4FF000607D
:1009A0000449086010BD0000001002400000FFF87C
:1009B000FFFFF6FE08ED00E010B540F22551284893
:1009C00000F071F8002849D0254800F027F9C4B29A
:1009D0002448254909784454AA2C03D02248007899
:1009E000002805DD20480078401C1F49087002E0FF
:1009F00000201D4908701C480078082827D10020D5
:100A00001949087017480078AA2820D1154840785D
:100A1000BB281CD113488078CC2818D11148C07845
:100A2000DD2814D10F484079012805D1FFF7A0FD3A
:100A300001200E49087008E00A48407928B90020D2
:100A4000FFF796FD002009490870FFF7B9FE084836
:100A50000088062802DD00200549088010BD00003E
:100A6000003801402B00002033000020000000204F
:100A70001C00002021B1828942F40052828104E0EE
:100A800082894DF6FF731A4082817047024600202A
:100A9000B1F5007F00D100BF13880B400BB10120DE
:100AA00000E00020704770B50246002400230025B6
:100AB000002040F66A16B14200D100BFC1F34215D2
:100AC00001F01F03012606FA03F3012D02D19689D6
:100AD000334006E0022D02D1168A334001E0968AA7
:100AE00033400C12012606FA04F41688344013B180
:100AF0000CB1012000E0002070BDF0B503460024D9
:100B000000260025002040F66A17B94200D100BF38
:100B10001846C1F3421401F01F06012707FA06F533
:100B2000012C01D10C3004E0022C01D1103000E086
:100B300014301AB107682F43076002E00768AF431B
:100B40000760F0BD2DE9F04786B005460E4600244B
:100B5000A24600BFA1460027B08900B100BF2F46C2
:100B60002C8A4CF6FF700440F08804432C82AC8938
:100B70004EF6F3100440B088318908437189084368
:100B80000443AC81AC8A4FF6FF400440B089044373
:100B9000AC8201A8FFF7A8FD1F48874202D1DDF80B
:100BA00010A001E0DDF80CA0A88900F4004040B1DD
:100BB0000AEBCA0000EB0A1031684900B0FBF1F8FB
:100BC00007E00AEBCA0000EB0A1031688900B0FBAD
:100BD000F1F86420B8FBF0F004012009642101FB66
:100BE0001089A88900F4004040B1322000EBC90010
:100BF000B0FBF1F000F00700044308E0322000EB06
:100C000009106421B0FBF1F000F00F0004432C81C7
:100C100006B0BDE8F0870000003801400146888832
:100C2000C0F308007047C1F308028280704700BF1C
:100C3000FEE700BF7047000010B56FF00400FFF73B
:100C400075FE0A4800680A49B0FBF1F009490870CE
:100C50000846007800EB4001C1EBC0104FF6FF7171
:100C600001EAC0000449088010BD00000400002013
:100C700000127A0044000020460000200146114A7C
:100C800012884A434FF0E0235A6100229A611A46C3
:100C9000126942F001021A6100BF4FF0E0221069B0
:100CA00000F001021AB100F48032002AF5D04FF0B2
:100CB000E022126922F001024FF0E0231A610022C3
:100CC0009A61704746000020FFF762FCFFF7B4FF0F
:100CD0004FF4A060FFF7ECFC4FF4E13000F00CF8AB
:100CE000FFF724FCFFF786FC05E0FFF769FD41F202
:100CF0008830FFF7C3FFF8E710B586B0044601213E
:100D000044F20400FFF7E0FC4FF40070ADF814006B
:100D100003208DF8160018208DF8170005A91C482F
:100D2000FFF74AFB4FF48060ADF8140004208DF803
:100D3000170005A91648FFF73FFB25208DF8000096
:100D400003208DF801008DF8020001208DF80300CA
:100D50006846FFF775FC01940020ADF80800ADF877
:100D60000A00ADF80C00ADF810000C20ADF80E0034
:100D700001A90848FFF7E6FE012240F22551054887
:100D8000FFF7BBFE01210348FFF774FE06B010BD5C
:100D9000000801400038014010B5044621460548CE
:100DA000FFF741FF00BF40210248FFF76FFE002818
:100DB000F9D010BD00380140D80D00080000002017
:100DC0005C0000006C010008340E00085C0000208C
:100DD00064060000880100080000000000A24A0428
:100DE00000000000000000000102030406070809DB
:100DF00000000000000000000000000000000000F3
:100E000000000000000000000000000000000000E2
:100E100000000000000000000000000000000000D2
:100E20000000000001020304010203040607080990
:040E300002040608AA
:04000005080001CD21
:00000001FF
